:100000000C94DD020C9405030C9405030C94050379
:100010000C9405030C9405030C9405030C94050340
:100020000C9405030C9405030C9405030C94050330
:100030000C9405030C9405030C9405030C94050320
:100040000C94DE0D0C9405030C944D100C942710A9
:100050000C9405030C9405030C9405030C94050300
:100060000C94280E0C94050300000000003E5B4F2A
:100070005B3E3E6B4F6B3E1C3E7C3E1C183C7E3C08
:10008000181C577D571C1C5E7F5E1C00183C180016
:10009000FFE7C3E7FF0018241800FFE7DBE7FF30A6
:1000A000483A060E2629792926407F050507407F14
:1000B00005253F5A3CE73C5A7F3E1C1C08081C1C87
:1000C0003E7F14227F22145F5F005F5F06097F017D
:1000D0007F006689956A606060606094A2FFA29468
:1000E00008047E040810207E201008082A1C080836
:1000F0001C2A08081E101010100C1E0C1E0C303884
:100100003E3830060E3E0E06000000000000005F84
:1001100000000007000700147F147F14242A7F2AA0
:100120001223130864623649562050000807030062
:10013000001C2241000041221C002A1C7F1C2A08AE
:10014000083E080800807030000808080808000011
:1001500060600020100804023E5149453E00427F85
:10016000400072494949462141494D331814127FD4
:100170001027454545393C4A494931412111090774
:100180003649494936464949291E000014000000F5
:1001900040340000000814224114141414140041C7
:1001A00022140802015909063E415D594E7C121184
:1001B000127C7F494949363E414141227F414141BC
:1001C0003E7F494949417F090909013E4141517337
:1001D0007F0808087F00417F41002040413F017FA8
:1001E000081422417F404040407F021C027F7F0470
:1001F00008107F3E4141413E7F090909063E4151B9
:10020000215E7F09192946264949493203017F01A8
:10021000033F4040403F1F2040201F3F4038403FA9
:10022000631408146303047804036159494D4300BF
:100230007F4141410204081020004141417F0402F6
:10024000010204404040404000030708002054548D
:1002500078407F284444383844444428384444286B
:100260007F385454541800087E090218A4A49C78BE
:100270007F0804047800447D40002040403D007F1A
:100280001028440000417F40007C047804787C08FA
:100290000404783844444438FC18242418182424CE
:1002A00018FC7C08040408485454542404043F44B3
:1002B000243C4040207C1C2040201C3C4030403CE2
:1002C00044281028444C9090907C4464544C440042
:1002D00008364100000077000000413608000201A6
:1002E0000204023C2623263C1EA1A161123A404092
:1002F000207A38545455592155557941225454780F
:1003000042215554784020545579400C1E527212A7
:100310003955555559395454545939555454580030
:1003200000457C410002457D420001457C407D1234
:1003300011127DF0282528F07C5455450020545496
:100340007C547C0A097F4932494949323A44444441
:100350003A324A4848303A4141217A3A424020787C
:10036000009DA0A07D3D4242423D3D4040403D3C7D
:1003700024FF2424487E4943662B2FFC2F2BFF09A2
:1003800029F620C0887E0903205454794100004496
:100390007D413048484A32384040227A007A0A0A81
:1003A000727D0D19317D2629292F282629292926F4
:1003B00030484D4020380808080808080808382F39
:1003C00010C8ACBA2F102834FA00007B00000814C3
:1003D0002A142222142A14085500550055AA55AA99
:1003E00055AAFF55FF55FF000000FF00101010FF39
:1003F00000141414FF001010FF00FF1010F010F094
:10040000141414FC001414F700FF0000FF00FF1484
:1004100014F404FC141417101F10101F101F1414D0
:10042000141F00101010F0000000001F101010101A
:100430001F10101010F010000000FF10101010100E
:1004400010101010FF10000000FF140000FF00FF4C
:1004500000001F10170000FC04F4141417101714E8
:1004600014F404F40000FF00F7141414141414140A
:10047000F700F7141414171410101F101F1414147D
:10048000F4141010F010F000001F101F0000001FE7
:1004900014000000FC140000F010F01010FF10FF1A
:1004A000141414FF141010101F00000000F010FFAF
:1004B000FFFFFFFFF0F0F0F0F0FFFFFF0000000093
:1004C00000FFFF0F0F0F0F0F3844443844FC4A4A17
:1004D0004A347E02020606027E027E0263554941CC
:1004E000633844443C04407E201E2006027E020203
:1004F00099A5E7A5991C2A492A1C4C7201724C3017
:100500004A4D4D303048784830BC625A463D3E49ED
:100510004949007E0101017E2A2A2A2A2A44445F91
:10052000444440514A444040444A51400000FF0185
:1005300003E080FF000008086B6B08361236243693
:10054000060F090F060000181800000010100030F8
:1005500040FF0101001F01011E00191D1712003C80
:100560003C3C3C00000000000000000800020100CC
:10057000000304070000000000000000000000006D
:10058000240027002A0001020408102040800102F4
:1005900004081020010204081020000000002500BB
:1005A00028002B00040404040404040402020202D0
:1005B0000202030303030303D21411241FBECFEF6F
:1005C000D8E0DEBFCDBF13E0A0E0B1E0ECE9FBE294
:1005D00002C005900D92A437B107D9F724E0A4E733
:1005E000B3E001C01D92A93EB207E1F712E0CDEDE4
:1005F000D2E004C02197FE010E94C115CC3DD10775
:10060000C9F70E94EF110C94CC150C940000FC016A
:10061000918D228D892F90E0805C9F4F821B9109E4
:100620008F739927089580E090E0892B29F00E942C
:10063000B40F81110C94000008953FB7F894809195
:10064000C0039091C103A091C203B091C30326B52A
:10065000A89B05C02F3F19F00196A11DB11D3FBFFA
:10066000BA2FA92F982F8827820F911DA11DB11D88
:10067000BC01CD0142E0660F771F881F991F4A9584
:10068000D1F708950F931F93CF93DF93DC01559615
:100690008C915597823071F0833009F1813009F0E7
:1006A0008CC01496ED91FC911597E41BF50BE21BA1
:1006B000F30B20C01496ED91FC911597CF01861B8A
:1006C000970BBC01615071091696ED91FC9117973B
:1006D000CF01841B950BAC01421B530B6EC01696C9
:1006E000ED91FC911797CF01861B970BBC016150D0
:1006F0007109FA0177FD1BC116968D919C91179790
:10070000681779070CF013C1F7FF04C02E0F3F1FC5
:10071000E0E0F0E014968D919C911597AF01420FA7
:10072000531F841795071CF49C012E1B3F0B1216B8
:1007300013060CF0FCC0CB0177FD079643E09595BE
:1007400087954A95E1F79695982F882797958795ED
:10075000E80FF91FE050FF4F6770772781E090E0C6
:1007600001C0880F6A95EAF7482F0130110541F062
:1007700088F00230110509F0DAC02E0F3F1F15C0B6
:100780002E0F3F1FE217F30709F4D1C08081842B9D
:100790008193F8CF80952E0F3F1FE217F30709F4DE
:1007A000C6C0908198239193F8CFE217F30709F41C
:1007B000BEC0808184278193F8CF77FDB8C014969E
:1007C0008D919C911597681779070CF0B0C057FF71
:1007D00004C0240F351F40E050E016968D919C9187
:1007E0001797FA01E20FF31F8E179F071CF49C0165
:1007F000241B350B121613060CF099C0A22F842F60
:1008000086958695869590E8899F600D711D1124C7
:10081000FB01E050FF4F4770A9F198E0941B492F6E
:1008200050E0EA01C85FDC4F8881291790F4421B31
:1008300051092FEF30E002C0359527954A95E2F730
:1008400082230130110541F068F00230110589F072
:100850006EC00130110519F42081822B0CC00130CB
:10086000110520F480952081822305C002301105F6
:1008700031F4208182278083A91708F458C0A91B6E
:10088000E058FF4FA83048F10230110559F4EF014C
:100890008A2F988190959883C058DF4F8850883070
:1008A000C0F730C081E00130110509F080E081958A
:1008B000EF019A2F8883C058DF4F98509830D0F7B7
:1008C00088EF8A0F86958695869590E8899FE00D3A
:1008D000F11D1124E058FF4FA770AA2341F1B0E0A9
:1008E000A050BD4F8C910130110529F038F0023035
:1008F0001105D1F01CC09081892B18C08095908182
:10090000892314C088EF8A0F86958695869590E88E
:10091000899FE00DF11D1124E058FF4FA77039F0B9
:10092000B0E0A050BD4F8C91908189278083DF91EA
:10093000CF911F910F9108950F931F93CF93DF9342
:10094000DC01FB0155968C915597823081F0833004
:1009500019F1813051F514968D919C911597BC0138
:10096000641B750BAB0141505109BF0181C0149646
:100970006D917C911597CB018E1B9F0BFC011696F8
:100980008D919C911797BC01641B750BAB01415075
:100990005109E21BF30B09C016966D917C911797D4
:1009A0006E1B7F0B621B730B63C057FD1CC1169639
:1009B0008D919C911797481759070CF014C1F7FFB8
:1009C00004C02E0F3F1FE0E0F0E014968D919C9143
:1009D0001597BF01620F731F861797071CF49C01C0
:1009E0002E1B3F0B121613060CF0FDC0CA0157FD5B
:1009F000079663E0959587956A95E1F79695982F08
:100A0000882797958795E80FF91FE050FF4F4770AB
:100A1000552781E090E001C0880F4A95EAF7482FFA
:100A20000130110541F088F00230110509F0DBC0FA
:100A30002E0F3F1F15C02E0F3F1FE217F30709F4BB
:100A4000D2C08081842B8193F8CF80952E0F3F1FD9
:100A5000E217F30709F4C7C0908198239193F8CF68
:100A6000E217F30709F4BFC0808184278193F8CF90
:100A700057FDB9C014968D919C9115974817590749
:100A80000CF0B1C077FF04C0260F371F60E070E0A4
:100A900016968D919C911797FB01E20FF31F8E170D
:100AA0009F071CF49C01261B370B121613060CF033
:100AB0009AC0A22F862F86958695869590E8899F65
:100AC000400D511D1124FA01E050FF4F6770A9F14C
:100AD00098E0961B492F50E0EA01C85FDC4F8881FF
:100AE000291790F4421B51092FEF30E002C03595D1
:100AF00027954A95E2F782230130110541F068F00D
:100B00000230110589F06FC00130110519F4208100
:100B1000822B0CC00130110520F4809520818223A6
:100B200005C00230110531F4208182278083A91786
:100B300008F459C0A91BE058FF4FA83048F1023013
:100B4000110559F4EF018A2F988190959883C05828
:100B5000DF4F88508830C0F731C081E00130110587
:100B600009F080E08195EF019A2F8883C058DF4F0C
:100B700098509830D0F788EF8A0F8695869586959D
:100B800060E8869FE00DF11D1124E058FF4FA7702B
:100B9000AA2349F1B0E0A050BD4F8C91013011055E
:100BA00029F038F002301105D9F01DC09081892B51
:100BB00003C0809590818923808315C088EF8A0FB8
:100BC00086958695869570E8879FE00DF11D112426
:100BD000E058FF4FA77039F0B0E0A050BD4F8C91A6
:100BE00090818927E9CFDF91CF911F910F910895CF
:100BF000FC0177FD9AC080859185681779070CF014
:100C000094C057FD92C082859385481759070CF010
:100C10008CC08589823009F07CC084819581DC019B
:100C2000A61BB70BBD016150710986819781FC013C
:100C3000E41BF50BAF01415051090AC0813041F46A
:100C400084819581841B950BAB01BC0161507109B6
:100C50002130310529F008F122303105E1F1089504
:100C6000FA0157FD3796A3E0F595E795AA95E1F7C8
:100C7000F695FE2FEE27F795E7956E0F7F1FFB0188
:100C8000E050FF4F4770552781E090E001C0880F8A
:100C90004A95EAF79081892B3AC0FA0157FD3796B9
:100CA00023E0F595E7952A95E1F7F695FE2FEE27D7
:100CB000F795E7956E0F7F1FFB01E050FF4F4770E0
:100CC000552781E090E001C0880F4A95EAF78095AA
:100CD000908189231CC0FA0157FD379683E0F59572
:100CE000E7958A95E1F7F695FE2FEE27F795E795BC
:100CF0006E0F7F1FFB01E050FF4F4770552781E0CB
:100D000090E001C0880F4A95EAF790818927808397
:100D10000895833009F092CF86819781861B970BC7
:100D2000BA01AC014150510993CF08950895FC01D7
:100D30006370658B8481958126813781613039F0BC
:100D4000633029F091878087338722870895318720
:100D500020879387828708952F923F924F925F92C8
:100D60006F927F928F929F92AF92BF92CF92DF92BB
:100D7000EF92FF920F931F93CF93DF93CDB7DEB720
:100D80006C970FB6F894DEBF0FBECDBF9C8F8B8FD4
:100D90005B011A011F830E833701C982DC0158965B
:100DA0004D915C9159974115510509F0E5C0189690
:100DB0008D919C911997681779070CF0CAC11A9602
:100DC0008D919C911B97281639060CF0C2C18C2C72
:100DD000912CFB0136E0C39EE00DF11D1124FB8731
:100DE000EA871E161F060CF0B4C1C40133E0880F59
:100DF000991F3A95E1F79D878C87820D931D1816F0
:100E000019060CF0A6C157968C91811103C0203BA6
:100E100008F02F5FAB8DBC8DED91FC911197028492
:100E2000F385E02DCD012A8F09952A8DB5E02B9F02
:100E300090011124F5013596FF87EE87BB82AA82C7
:100E40002501A9014A195B09598B488BC1010896F4
:100E50009B8B8A8BE889F989E40DF51DE859FF4FD2
:100E60009491988761013D822C82A885A0FF13C0D0
:100E7000AB8DBC8DED91FC91B981B13031F404841E
:100E8000F585E02D2E813F8116C00684F785E02D83
:100E9000EE80FF801AC0EE81FF816E167F06F1F0B2
:100EA000AB8DBC8DED91FC91B981B13051F40484CE
:100EB000F585E02D9301A601B2018B8D9C8D0995DE
:100EC0000DC00684F785E02D7301840194014C81E7
:100ED0005D816A817B818B8D9C8D0995E885E69586
:100EE000E887FFEFCF1ADF0A2C813D81280D391DDD
:100EF0003D832C834A895B89C416D50609F0B5CF9A
:100F00005FEF451A550A8A819B81880D991D9B8345
:100F10008A83AE85BF854A165B0609F09BCFEE81BA
:100F2000FF816E167F0609F4F2C0EB8DFC8DA08167
:100F3000B181F981F13079F4B5016B5F7F4F509643
:100F4000ED91FC915197830128E030E0A1018B8D58
:100F50009C8D0995DCC06A857B85681979091E9688
:100F6000ED91FC911F9773010C851D859401A101E2
:100F70008B8D9C8D0995CBC0FA0134969491329754
:100F800065917491291BCB01B7E02B9F800D911DBA
:100F90001124FA01259134913B8B2A8BFC01459158
:100FA00054915B834A83FC013296C49031965491EC
:100FB0005E87329614913196D4908981823058F0B0
:100FC000612E012E000C7708AD2D0D2C000CBB0BF3
:100FD000B987A88704C019861886612C712CAB8D3F
:100FE000BC8DED91FC9111970284F385E02DCD012C
:100FF0000995B9818B2E912C689CC001699C900D3C
:10100000789C900D1124FC01EA0DFB1DFD87EC87F7
:101010001C82712C612CE12F110FFF0B95012E0FFB
:101020003F1F3B872A87AC0CB11CA5014E0F5F1FE9
:101030005F8B4E8BC1018D0D911DD7FC9A95998FB9
:10104000888F4E85641608F062C0862D90E0488532
:101050005985480F591F489D9001499D300D589D55
:10106000300D1124D901A20DB31DB98BA88BAA8410
:10107000BB844C845D84DC80BA85DB1AE88DF98DF5
:10108000E80FF91FFD8BEC8B8D2D8A0D2E893F8982
:10109000A216B306B9F1877061F48A819B8101962B
:1010A000EA89FB89AA81BB81EA0FFB1F74909B83AD
:1010B0008A8377FE20C0AB8DBC8DED91FC91B98108
:1010C000B13061F40484F585E02D2E813F814C8997
:1010D0005D89B5018B8D9C8D09950DC00684F785C2
:1010E000E02DEE80FF808401940148895989B20186
:1010F0008B8D9C8D0995770CEFEFAE1ABE0A480CCC
:10110000591CC2CF3C813C0D3C8363949ACFAB8D7C
:10111000BC8DED91FC9111970688F789E02DCD01EA
:101120006C960FB6F894DEBF0FBECDBFDF91CF91A6
:101130001F910F91FF90EF90DF90CF90BF90AF90F5
:101140009F908F907F906F905F904F903F902F90E7
:1011500009946C960FB6F894DEBF0FBECDBFDF9139
:10116000CF911F910F91FF90EF90DF90CF90BF90A4
:10117000AF909F908F907F906F905F904F903F9037
:101180002F900895AF92BF92CF92EF92FF920F935C
:101190001F93CF93DF93EC01262F888D998D0097B5
:1011A00009F040C06A3059F41D861C862C898E8552
:1011B0009F8538E0239F800D911D112441C06D3023
:1011C00009F4AAC08E898823C1F03C898C859D854D
:1011D00046E0349F800D911D11244885598548179C
:1011E00059075CF41D861C868E859F8548E0349FD8
:1011F000800D911D11249F878E87EA88FB880889BE
:1012000019894E855F856C857D85CC88CE010E94CD
:10121000AC062C898C859D8536E0239F800D911D21
:10122000112442C06A3079F41D861C862C89FC0189
:101230003696E4918E859F852E9F800D911D1124F9
:101240009F878E8769C06D3009F466C0FC013496B3
:101250003491631708F460C03196E491E61708F4FE
:101260005BC0FC013296A590B490462F50E0431B22
:10127000510937E0349FB001359F700D1124A60E3F
:10128000B71EF501329634913196E491332311F073
:10129000E1110DC0F5013496E4912C898C859D8572
:1012A000E29F800D911D11249D878C8735C0F5012B
:1012B000359644915E89552311F16C89E32FF0E056
:1012C000E40FF11D47FDFA956E9FD0016F9FB00DA1
:1012D00011244C855D854A0F5B1FE885F985E4176D
:1012E000F5076CF41D861C86FC013696E4918E850C
:1012F0009F856E9F800D911D11249F878E87EA88A0
:10130000FB88088919894E855F856C857D85CC8829
:10131000CE010E94AC06BECF81E090E0DF91CF917C
:101320001F910F91FF90EF90CF90BF90AF900895D5
:101330006F927F928F929F92AF92BF92CF92DF92E5
:10134000EF92FF920F931F93CF93DF93EC014B012A
:101350005A0169013801E881F9810284F385E02DA1
:101360000995E881F9810288F389E02D87019601CA
:10137000A501B401CE010995E881F981A501460DC9
:10138000571D415051090288F389E02D9601B4019F
:10139000CE010995E881F9810088F189E02D93015A
:1013A000A501B401CE010995E881F981C80CD91CC9
:1013B000B601615071090088F189E02D9301A50102
:1013C000CE010995E881F9810688F789E02DCE01E3
:1013D000DF91CF911F910F91FF90EF90DF90CF9011
:1013E000BF90AF909F908F907F906F900994CF9215
:1013F000DF92EF92FF920F931F93CF93DF9300D072
:1014000000D000D0CDB7DEB76C01DC01ED91FC91CE
:101410006217730789F4041715072CF4942F852F8E
:10142000A801092F182F041B150B98012F5F3F4FA0
:10143000048CF58DE02D12C04017510709F52617D1
:1014400037072CF4962F872FB901292F382F261B09
:10145000370B2F5F3F4F068CF78DE02D8701C601BC
:10146000099526960FB6F894DEBF0FBECDBFDF916B
:10147000CF911F910F91FF90EF90DF90CF90089543
:101480000284F385E02D2D833E834B835C83698347
:101490007A830995D601ED91FC910488F589E02DB8
:1014A0002D813E814B815C8169817A81C6010995DC
:1014B000D601ED91FC910688F789E02DC6012696AC
:1014C0000FB6F894DEBF0FBECDBFDF91CF911F9155
:1014D0000F91FF90EF90DF90CF900994EF92FF92E1
:1014E0000F931F93DC01ED91FC9111971A960D91CA
:1014F0001C911B9718962D913C91199700A0F1A172
:10150000E02D7B0140E050E060E070E009951F9124
:101510000F91FF90EF9008954F925F926F927F929C
:101520008F929F92AF92BF92CF92DF92EF92FF92F3
:101530000F931F93CF93DF9300D0CDB7DEB76C012D
:101540005A0139014801DC01ED91FC910284F385D7
:10155000E02D69837A8309956981462E7A81572E19
:10156000640C751CD601ED91FC91461457046CF483
:101570000088F189E02D87019401A501B201C6011F
:101580000995BFEF4B1A5B0AEDCF0688F789E02D6E
:10159000C6010F900F90DF91CF911F910F91FF9097
:1015A000EF90DF90CF90BF90AF909F908F907F9003
:1015B0006F905F904F900994AF92BF92CF92DF925D
:1015C000EF92FF920F931F93CF93DF9300D000D041
:1015D000CDB7DEB75C016901DC01ED91FC910284BD
:1015E000F385E02D4B835C8369837A830995D5016C
:1015F000ED91FC9169817A819B012C0D3D1D21505B
:1016000031090488F589E02D78014B815C818A01DC
:10161000C5010995D501ED91FC910688F789E02D6A
:10162000C5010F900F900F900F90DF91CF911F91F8
:101630000F91FF90EF90DF90CF90BF90AF90099403
:10164000AF92BF92CF92DF92EF92FF920F931F93D0
:10165000CF93DF9300D000D0CDB7DEB75C01690136
:10166000DC01ED91FC910284F385E02D4B835C83DA
:1016700069837A830995D501ED91FC914B815C8159
:10168000C40ED51EB1E0CB1AD1080488F589E02D2F
:101690007801860169817A819B01C5010995D5018F
:1016A000ED91FC910688F789E02DC5010F900F9010
:1016B0000F900F90DF91CF911F910F91FF90EF90BE
:1016C000DF90CF90BF90AF9009940895EF92FF9272
:1016D0000F931F93DC01ED91FC9100A0F1A1E02D8F
:1016E00009951F910F91FF90EF9008950F931F930D
:1016F000DC01ED91FC91068CF78DE02D09951F9191
:101700000F9108950F931F93DC01ED91FC91048CD0
:10171000F58DE02D09951F910F910895DC01ED9154
:10172000FC910084F185E02D099408952F923F9259
:101730004F925F926F927F928F929F92AF92BF92E1
:10174000CF92DF92EF92FF920F931F93CF93DF938D
:1017500000D01F92CDB7DEB74C017B836A836A014C
:10176000590117019801241B350B37FF03C0319530
:1017700021953109C5014A815B81841B950B97FF37
:1017800003C091958195910951E059838217930780
:1017900014F019820BC09A2D8B2D5801092F182F88
:1017A0009A818B81DB82CA82C92ED82E8A819B8145
:1017B000A816B9065CF49C2D8D2D6801092F182FF1
:1017C0009A818B81BB82AA82A92EB82E2501AA817B
:1017D000BB814A1A5B0A38016C187D0877FE03C08A
:1017E000719461947108720157FE03C0BFEFEB1A48
:1017F000FB0AF594E794C016D1061CF00FEF1FEF1B
:101800001FC001E010E01CC0D401ED91FC91B98132
:101810000484F585E02D9101BB23C1F04A815B81F1
:10182000B601C4010995E618F708F7FE04C0C00E1A
:10183000D11EE40CF51CEA81FB813196FB83EA831F
:101840004A815B81A416B506FCF604C0A6016A8134
:101850007B81E7CF0F900F900F90DF91CF911F9179
:101860000F91FF90EF90DF90CF90BF90AF909F903F
:101870008F907F906F905F904F903F902F90089542
:1018800085ED8093BC008091BC0084FDFCCF10925C
:10189000ED03089540919603262F30E0240F311D6B
:1018A00021323105DCF42091ED032430C9F4FC0130
:1018B00080E090E0861758F4309196032191DC0186
:1018C000AC58BC4FA30FB11D2C930196F3CF809160
:1018D0009603680F6093960380E0089581E0089571
:1018E00082E00895089581E090E03091C503209151
:1018F000C403321710F480E090E09195819591092E
:1019000008958091C5039091C403891730F48F5FC7
:101910008093C50380E090E008958FEF9FEF0895D6
:101920008091C40390E02091C503821B9109089522
:10193000CF92DF92EF92FF920F931F93CF93DF939B
:101940007C01262F972F8A018091EE03882391F046
:10195000C62FD72F6E01C40ED51ECC15DD0571F034
:101960006991D701ED91FC910190F081E02DC701C3
:101970000995F3CF642F822F0E944A0CC801DF9192
:10198000CF911F910F91FF90EF90DF90CF9008952E
:10199000CF93DF931F92CDB7DEB769832091EE031B
:1019A0002223D1F020911004203240F021E030E0D9
:1019B000FC013383228380E090E015C08091EF0327
:1019C000E82FF0E0E051FC4F998190838F5F809386
:1019D000EF038093100405C061E0CE0101960E94E0
:1019E0004A0C81E090E00F90DF91CF910895089527
:1019F00080E090E00895FC01848DDF01A80FB11D07
:101A0000A35ABF4F2C91848D90E001968F73992734
:101A1000848FA689B7892C93A089B1898C91806421
:101A20008C93938D848D981306C00288F389E02DE2
:101A300080818F7D8083089590E0FC01E859FA4F02
:101A40003491FC01EA57FA4F2491FC01EC55FA4F0E
:101A5000E491EE2309F43BC0332339F1333091F0A4
:101A600038F43130A9F0323001F584B58F7D12C0E1
:101A7000373091F03830A1F03430B9F480918000E3
:101A80008F7D03C0809180008F77809380000DC090
:101A900084B58F7784BD09C08091B0008F7703C073
:101AA0008091B0008F7D8093B000F0E0EE0FFF1FBB
:101AB000E656FA4FA591B4918FB7F894EC91611165
:101AC00003C020952E2301C02E2B2C938FBF089589
:101AD000CF93DF9390E0FC01EA57FA4F2491FC0189
:101AE000EC55FA4F8491882361F190E0880F991F9B
:101AF000FC01E458FA4FC591D491FC01E656FA4F27
:101B0000A591B491611109C09FB7F894888120957F
:101B100082238883EC912E230BC0623061F49FB73F
:101B2000F8943881822F809583238883EC912E2B23
:101B30002C939FBF06C08FB7F894E8812E2B288383
:101B40008FBFDF91CF9108958F929F92AF92BF92F6
:101B5000CF92DF92EF92FF926B017C010E941D03F6
:101B60004B015C01C114D104E104F104F1F00E94C5
:101B70001D03DC01CB0188199909AA09BB09883E1C
:101B80009340A105B10570F321E0C21AD108E10824
:101B9000F10888EE880E83E0981EA11CB11CC114C8
:101BA000D104E104F10419F7DDCFFF90EF90DF904D
:101BB000CF90BF90AF909F908F9008951F920F92FB
:101BC0000FB60F9211242F933F938F939F93AF9350
:101BD000BF938091BC039091BD03A091BE03B091CF
:101BE000BF033091BB0323E0230F2D3720F4019670
:101BF000A11DB11D05C026E8230F0296A11DB11D30
:101C00002093BB038093BC039093BD03A093BE03BA
:101C1000B093BF038091C0039091C103A091C20310
:101C2000B091C3030196A11DB11D8093C003909391
:101C3000C103A093C203B093C303BF91AF919F911F
:101C40008F913F912F910F900FBE0F901F9018957D
:101C50001F920F920FB60F9211242F933F934F9321
:101C60005F936F937F938F939F93AF93BF93EF9304
:101C7000FF938091B900887F803609F49CC068F595
:101C8000883209F45BC090F4803109F454C038F410
:101C9000882309F4F6C0883009F44DC0F6C08831B5
:101CA00009F44CC0803209F45DC0EFC0803409F4FF
:101CB00068C048F4803309F455C0883309F0E5C0A2
:101CC0008093EB03D8C0803509F44FC0883509F400
:101CD0005DC0883409F0D9C0D6C0883909F4C7C0BE
:101CE000A8F4883709F467C038F4883609F463C06B
:101CF000803709F460C0C9C0883809F4B8C0803999
:101D000009F45FC0803809F0C0C05BC0803B09F4B3
:101D100086C038F4803A09F466C0883A09F47FC076
:101D2000B4C0803C09F4A7C0883C09F4A4C0883B37
:101D300009F48AC0AAC08091C80310C09091EA0338
:101D40008091E903981770F5E091EA0381E08E0F26
:101D50008093EA03F0E0E753FC4F80818093BB005F
:101D600085EC86C08093EB038EC0E091EA0381E0AE
:101D70008E0F8093EA038091BB00F0E0E753FC4FA5
:101D800080839091EA038091E9036EC0E091EA03B9
:101D900081E08E0F8093EA038091BB00F0E0E7536F
:101DA000FC4F80838091EC0381116DC081E08093B2
:101DB000C70384EA61C083E08093ED031092BA0305
:101DC000CFCF8091BA03803208F051C0E091BA03BE
:101DD00081E08E0F8093BA038091BB00F0E0E6565D
:101DE000FC4F8083BDCF85EC8093BC001092ED0347
:101DF0008091BA03803230F4E091BA03F0E0E65605
:101E0000FC4F10826091BA0370E0E0919803F0916A
:101E100099038AE993E009951092BA0336C084E0E9
:101E20008093ED031092970310929603E091940330
:101E3000F0919503099580919603811105C081E089
:101E40008093960310927403E091970381E08E0FC4
:101E500080939703F0E0EC58FC4F80818093BB00A7
:101E60009091970380919603981708F479CF85E8AD
:101E70008093BC000AC085EC8093BC001092ED03F7
:101E800004C01092EB030E94400CFF91EF91BF91B0
:101E9000AF919F918F917F916F915F914F913F9102
:101EA0002F910F900FBE0F901F901895CF92DF9239
:101EB000EF92FF920F931F93CF93DF936C017A0100
:101EC0008B01C0E0D0E0CE15DF0589F0D8016D911F
:101ED0008D01D601ED91FC910190F081E02DC601BC
:101EE0000995892B11F47E0102C02196ECCFC70120
:101EF000DF91CF911F910F91FF90EF90DF90CF90E6
:101F00000895FC01538D448D252F30E0842F90E0FF
:101F1000821B930B541710F0CF96089501970895E4
:101F2000FC01918D828D981761F0828DDF01A80FE1
:101F3000B11D5D968C91928D9F5F9F73928F90E003
:101F400008958FEF9FEF0895FC01918D828D981772
:101F500031F0828DE80FF11D858D90E008958FEFAF
:101F60009FEF08950E94C71581E194E00E94070346
:101F700021E0892B09F420E0822F0895EF92FF924F
:101F80000F931F93CF93DF93EC0181E0888F9B8D9C
:101F90008C8D981305C0E889F989808185FD24C05E
:101FA000F62E0B8D10E00F5F1F4F0F731127E02EE1
:101FB0008C8DE8120CC00FB607FCFACFE889F989BE
:101FC000808185FFF5CFCE010E94FB0CF1CF8B8D78
:101FD000FE01E80FF11DE35AFF4FF0820B8FEA89F3
:101FE000FB898081806207C0EE89FF896083E88970
:101FF000F98980818064808381E090E0DF91CF91D6
:102000001F910F91FF90EF900895CF93DF93EC0114
:10201000888D8823C9F0EA89FB89808185FD05C008
:10202000A889B9898C9186FD0FC00FB607FCF5CF42
:10203000808185FFF2CFA889B9898C9185FFEDCF8A
:10204000CE010E94FB0CE7CFDF91CF9108951F9244
:102050000F920FB60F9211242F933F934F935F93DC
:102060006F937F938F939F93AF93BF93EF93FF9360
:1020700081E194E00E94FB0CFF91EF91BF91AF9141
:102080009F918F917F916F915F914F913F912F9190
:102090000F900FBE0F901F9018951F920F920FB6C2
:1020A0000F9211242F938F939F93EF93FF93E091BF
:1020B0002104F09122048081E0912704F09128040A
:1020C00082FD12C0908180912A048F5F8F732091CE
:1020D0002B04821751F0E0912A04F0E0EF5EFB4FF1
:1020E000958F80932A0401C08081FF91EF919F9189
:1020F0008F912F910F900FBE0F901F9018952091E8
:1021000010049091E804213208F04AC08091ED0358
:102110008111FCCF32E03093ED0331E03093EC03DA
:102120003FEF3093EB031092EA032093E903A0EF13
:10213000B3E049EC53E0FA013E2F341B321718F498
:102140003D913193F9CF1092C8032091C803990FA4
:10215000922B9093C8039091C703913061F4109231
:10216000C7039091C8039093BB009091BC0093FD6E
:10217000F8CF95EC01C095EE9093BC009091ED03E3
:102180009230E1F39091EB039F3F79F08091EB0364
:10219000803241F08091EB03803331F084E005C060
:1021A00081E003C082E001C083E01092EF0310924F
:1021B00010041092EE0308959091DB04992339F0F6
:1021C0008EBD00000DB407FEFDCF8EB5089528E04A
:1021D00030E040E8E091DE04F091DF04508190911E
:1021E000E504909595239083E091DC04F091DD0463
:1021F0009091E404542F582319F05081952B03C07B
:102200005081909595239083E091DE04F091DF0456
:1022100050819091E504952B90834695215031098A
:10222000C9F60895CF93C82F8091D6048F3F59F1F6
:10223000E091E004F091E10480819091E604982B14
:102240009083E091E204F091E30420819091E7040F
:10225000909592239083E091E004F091E104208135
:102260009091E6049095922390838C2F0E94DC102D
:10227000E091E004F091E10490818091E604892BE3
:102280008083CF9108958091D40491E09093EE03E0
:102290008093E8041092EF031092100460E08EEA3D
:1022A00094E00E94C80C6C2F8EEA94E00E94C80C47
:1022B000CF910C947F10EF92FF920F931F93CF93C7
:1022C000DF9381E20E94121180E00E9412118FE7D9
:1022D0000E94121182E20E94121180E00E941211EB
:1022E00083E00E9412118091D6048F3F79F1E09132
:1022F000E004F091E10490818091E604892B8083D1
:10230000E091E204F091E30490818091E704892B4D
:102310008083E091E004F091E10490818091E604F3
:10232000809589238083C0E0D1E089910E94DC10F0
:1023300083E0C030D807C9F7E091E004F091E104F0
:1023400090818091E604892B808330C0F090B800A2
:102350008CE08093B800C0E0D1E0EE24E39480915B
:10236000D404E092EE038093E8041092EF031092FD
:10237000100460E48EEA94E00E94C80C00E010E0D3
:10238000FE01E00FF11F60818EEA94E00E94C80C0C
:102390000F5F1F4F0031110599F70E947F10609663
:1023A00083E0C030D807D9F6F092B800DF91CF9122
:1023B0001F910F91FF90EF900895009769F0FC0135
:1023C00001900020E9F73197AF01481B590BBC0180
:1023D0008AEB94E00C94560F80E090E00895CF9340
:1023E000DF93CDB7DEB7E5970FB6F894DEBF0FBE2B
:1023F000CDBF789484B5826084BD84B5816084BD8E
:1024000085B5826085BD85B5816085BD80916E0092
:10241000816080936E0010928100809181008260C3
:102420008093810080918100816080938100809100
:1024300080008160809380008091B10084608093EF
:10244000B1008091B00081608093B00080917A00EB
:10245000846080937A0080917A00826080937A0011
:1024600080917A00816080937A0080917A00806800
:1024700080937A001092C10060E08EE00E94680DA7
:1024800060E082E00E94680D61E089E00E94680DD2
:10249000E0912104F091220492E09083E0911D04E8
:1024A000F0911E041082E0911F04F09120048FEC43
:1024B000808310922904E0912504F091260486E09F
:1024C0008083E0912304F0912404808180618083E3
:1024D000E0912304F0912404808188608083E0915E
:1024E0002304F0912404808180688083E091230498
:1024F000F091240480818F7D80839093D5048CE3B8
:102500008093D4048091D6048F3F09F4BDC061E06C
:102510008091D8040E94680D61E08091DA040E94E5
:10252000680D8091DA04082E000C990BFC01EC5523
:10253000FA4FE491F0E0EE0FFF1FE656FA4F2591B7
:1025400034913093E1042093E004FC01EA57FA4F00
:10255000E491E093E6048091D804082E000C990BD6
:10256000FC01EC55FA4FE491F0E0EE0FFF1FE65648
:10257000FA4F259134913093E3042093E204FC0157
:10258000EA57FA4FE491E093E7048091DB0481116C
:102590003EC061E08091D6040E94680D61E08091A8
:1025A000D7040E94680D8091D704082E000C990B67
:1025B000FC01EC55FA4FE491F0E0EE0FFF1FE656F8
:1025C000FA4F259134913093DF042093DE04FC010F
:1025D000EA57FA4FE491E093E5048091D604082E7F
:1025E000000C990BFC01EC55FA4FE491F0E0EE0F72
:1025F000FF1FE656FA4F259134913093DD04209366
:10260000DC04FC01EA57FA4FE491E093E404809182
:10261000DB04882309F45FC01FB7F8948091C603D8
:10262000811127C0EEEAF5E08491E0E9F5E09491AC
:10263000E82FF0E0EE0FFF1FE458FA4FA591B49198
:10264000EC91E92321F461E08AE00E941C0D61E035
:102650008AE00E94680D8CB580618CBD8CB5806469
:102660008CBD61E08DE00E94680D61E08BE00E940E
:10267000680D8091C6038F5F8093C6031FBF80E5FE
:102680008CBD81E08DBD27C01092C5031092C4039C
:102690001092EF03109210041092ED0381E08093EA
:1026A000EC031092C70361E082E10E941C0D61E01F
:1026B00083E10E941C0D8091B9008E7F8093B90048
:1026C0008091B9008D7F8093B90088E48093B80031
:1026D00085E48093BC008091D90487FD1EC061E031
:1026E0000E94680D61E08091D9040E941C0D61E098
:1026F00070E080E090E00E94A40D60E08091D90439
:102700000E941C0D6AE070E080E090E00E94A40D41
:1027100061E08091D9040E941C0D8EEA0E94121182
:1027200085ED0E94121180E80E94121188EA0E9431
:1027300012118FE10E94121183ED0E94121180E0AC
:102740000E94121180E40E9412118DE80E94121161
:1027500084E10E94121180E20E94121180E00E9426
:10276000121181EA0E94121188EC0E9412118AED66
:102770000E94121182E00E94121181E80E9412113F
:102780008FE80E94121189ED0E94121181EF0E94C0
:1027900012118BED0E94121180E40E94121184EA42
:1027A0000E94121186EA0E9412118EE20E941211FA
:1027B0008FEA0E9412110E945B1180E092E0E0E03B
:1027C000F1E0DF019C011D9221503040E1F71F0133
:1027D0006E0136E3C30ED11C9AE0492E512C612CB8
:1027E000712CD101E0E0F2E01D923197E9F79E01F2
:1027F0002E5D3F4F5901490190E490937C008091F8
:102800007A00806480937A0080917A0086FDFCCF04
:10281000809178002091790090E0922BD4018D93E3
:102820009D934D0168EC70E080E090E00E94A40D63
:102830008C149D0409F780E090E0F501219131911D
:102840005F01820F931FEC15FD05B9F76AE070E098
:102850000E949215DB01D79728EF31E10E94A6155F
:102860002FEF33E040E050E00E94371549015A0154
:10287000F0E98F0EF1E09F1EA11CB11C82E0809355
:10288000CE0481E090E09093CD048093CC049093AB
:10289000CB048093CA041092C7041092C60410920D
:1028A000C9041092C80480E693E00E94DD118AE614
:1028B00093E00E94DD118DE693E00E94DD118AE62F
:1028C00093E00E94DD11B7FE26C0E091BA04F091BA
:1028D000BB040190F081E02D6DE28AEB94E0099554
:1028E00022273327A901281939094A095B0919A2A6
:1028F0008E010F5D1F4FCA01B901A30192010E9411
:102900006115605DD8016E938D012115310541057A
:10291000510589F715C0A501940119A28E010F5D1B
:102920001F4FCA01B901A30192010E946115605DA8
:10293000F80162938F01211531054105510589F791
:10294000C8010E94DD118FE693E00E94DD11AFE720
:10295000B0E0A50194010E94561528EE33E040E056
:1029600050E00E943715EE24E394F12C0AE010E0C9
:1029700044E350E060E070E08AEB94E00E948C0A4F
:102980000E945B11F1EB8F16F4E09F06A104B104E5
:1029900014F061E001C060E089E00E941C0D0E941B
:1029A00013031FCFE1E1F4E01382128288EE93E07B
:1029B000A0E0B0E084839583A683B78324E133E06D
:1029C0003183208325EC30E03587248724EC30E008
:1029D0003787268720EC30E0318B208B21EC30E0EC
:1029E000338B228B22EC30E0358B248B26EC30E0CD
:1029F000378B268B118E128E138E148EEEEAF4E036
:102A00001382128284839583A683B78386E293E040
:102A100091838083EAEBF4E01382128220E830E0B5
:102A20003583248380E290E09783868331872087F3
:102A300093878287158A158614861786168681E005
:102A4000848B2FEF3FEF338B228B318B208B868B48
:102A5000178A118E108E88E393E0918380838FEF25
:102A6000848F80A3868F858F84E0878F0895052EBD
:102A700097FB1EF400940E944E1557FD07D00E944C
:102A8000611507FC03D04EF40C944E1550954095FB
:102A9000309521953F4F4F4F5F4F0895909580950A
:102AA000709561957F4F8F4F9F4F08950E948315BA
:102AB000A59F900DB49F900DA49F800D911D112492
:102AC0000895A1E21A2EAA1BBB1BFD010DC0AA1F6F
:102AD000BB1FEE1FFF1FA217B307E407F50720F087
:102AE000A21BB30BE40BF50B661F771F881F991F02
:102AF0001A9469F760957095809590959B01AC014B
:102B0000BD01CF010895A29FB001B39FC001A39F53
:102B1000700D811D1124911DB29F700D811D112416
:102B2000911D089597FB072E16F4009407D077FDAA
:102B300009D00E94AD1507FC05D03EF49095819513
:102B40009F4F0895709561957F4F08950E9483155A
:102B5000B7FF0895821B930B0895AA1BBB1B51E17D
:102B600007C0AA1FBB1FA617B70710F0A61BB70BFD
:102B7000881F991F5A95A9F780959095BC01CD01A2
:102B80000895EE0FFF1F0590F491E02D099481E068
:0C2B900090E0F8940C94CC15F894FFCF62
:102B9C000000000000000000000000000000000029
:102BAC000000000000000000000000000000000019
:102BBC000000000000000000000000000000000009
:102BCC000000000000000000000000000000008079
:102BDC0080800000000000000000000000000000E9
:102BEC00008080C0C0000000000000000000000059
:102BFC0000000000000000000000000000000000C9
:102C0C0000000000000000000000000000000000B8
:102C1C0000000000000000000000000000000000A8
:102C2C000000000080C0E0F0F8FCF8E000000000BC
:102C3C000000000000000000000000000080808008
:102C4C00808000808000000000808080808000FFF9
:102C5C00FFFF00000000808080800000808000006A
:102C6C0080FFFF80800080800080808080008080DA
:102C7C000000000000808000008C8E84000080F832
:102C8C00F8F88000000000000000000000000000C8
:102C9C00F0F0F0F0F0F0F0F0F0F0F0F0E0E0C080E8
:102CAC0000E0FCFEFFFFFF7FFFFFFFFFFF000000C7
:102CBC000000000000000000000000FEFFC7010142
:102CCC00010183FFFF00007CFEC70101010183FFAE
:102CDC00FFFF0038FEC78301010183C7FFFF00001F
:102CEC0001FFFF010100FFFF0701010100007FFF51
:102CFC0080000000FFFF7F0000FFFFFF000001FFCE
:102D0C00FFFF0100000000000000000000000000B8
:102D1C00030F3F7F7FFFFFFFFFFFFFFFE7C7C78F5B
:102D2C008F9FBFFFFFC3C0F0FFFFFFFFFFFCFCFC4A
:102D3C00FCFCFCFCFCF8F8F0F0E0C0000103030321
:102D4C00030301030300000000010303030301015B
:102D5C00030100000001030303030101030300004E
:102D6C00000303000000030300000000000000014A
:102D7C00030303030301000000010301000000032F
:102D8C000301000000000000000000000000000033
:102D9C00000103070F1F3F7F0080C0E0F0F8FCFE2E
:102DAC0000000000BE0F560F810F05100703900F97
:102DBC00A40F00000000C80C980CF80C720C900CBE
:102DCC00810C730C00000000C208560FF80CF70CB5
:102DDC00F805950B8E0B660B820B760B960B650B21
:102DEC009706960642039C048C0A6E0AF70998090A
:102DFC00434F32204C6576656C000D0A0020002094
:042E0C0050504D00D5
:00000001FF
